:10018E00202020416464202066696E6765722020FD
:10019E000020202020494420697320202020202088
:1001AE00200020506C65617365202066696E67655E
:1001BE0072200020202020202020202020202020FF
:1001CE00202020005375636365737366756C20651C
:1001DE006E74727900205365617263682073756363
:1001EE006365737320002053656172636820206617
:1001FE0061696C65642000202020656D7074792023
:10020E00616C6C2020202000202020596573206F07
:10021E0072206E6F203F202000202020656D7074AC
:10022E0079696E67202020202000202020416C6CF0
:10023E0020656D70747920202020004C6F616469F8
:10024E006E6700446F636B696E6720206661696C30
:10025E0075726500446F636B696E672020737563FA
:10026E00636573730046696E6765727072696E744A
:10027E002054657374002020736561726368206674
:10028E00696E676572200020204164642020202062
:10029E002064656C65746500202A00202000010032
:1002AE00071300000000001BEF01FFFFFFFF01001E
:1002BE00030100050100031D0021010008040100D7
:1002CE000003E700F80100080401000000130021FC
:1002DE0001000402010008010004020200090100ED
:1002EE00030500090100030D0011000000000000CD
:1009E700010900010800022A0000092C010006067F
:0509F70001000B0019D6
:100A1200759850E4F587758920758DFD758BFDD22B
:040A22008ED2AF229F
:030A9E00EE93FFD5
:080AA1008F993099FDC29922E2
:070AA9003098FDC298AF99DF
:010AB0002223
:10094B00C2B67F0A7E00120963D2B47F0A7E001200
:08095B0009638D807F0A7E0014
:0A096300EF1F70011E144E70F72202
:0409CC007F057E0025
:1009D0007D737C00ED1D70011C144C70F7EF1F70CF
:0609E000011E144E70EA36
:0109E60022EE
:02098E00AB07B5
:10099000E4FAEAC39B5015C2A67FC87E001209D0B4
:0C09A000D2A67FC87E001209D00A80E6B3
:0109AC002228
:070AB100D2A4D2A2D2A022C0
:0C0A9200AD07C2B4C2B512094BC2B422B9
:100781007FCA120A92AE2AAF2B7C007D6412012629
:10079100EF2430FF1207D3AE2AAF2B7C007D641209
:1007A10001267E007F0ACFCDCFCECCCE120126EF1F
:1007B1002430FF1207D3AE2AAF2B7C007D641201D7
:1007C100267E007F0ACFCDCFCECCCE120126ED24DE
:0207D10030FFF7
:0C07D300AD07C2B4D2B512094BC2B4226B
:0309FD00120A9249
:100A00007580FFC2B5D2B6D2B4AF80C2B4EF20E7D2
:010A1000F6EF
:010A110022C2
:1008FD007F0F7E001209D07F38120A921209CC1296
:10090D000A007F381209FD7F011209FD7F06120AC8
:09091D0092120A007F0C020A92FA
:0E088D007A0179B07BFFE4F53E753F107F8065
:02089B00AE07A6
:10089D00120A00AF06120A92E4F540E540C3953FF7
:1008AD005018120A00E540253EF582E433F5831217
:0A08BD0000F9FF1207D3054080E1A7
:0108C700220E
:1009AD00E4FDFC74B62DF58274023CF583E493FFEF
:0E09BD00120AA10DBD00010CED64064C70E5A0
:0109CB002209
:10092600E4FDFC1209ADE4FCFD74AC2DF582740205
:100936003CF583E493FF120AA10DBD00010CED64A2
:040946000A4C70E502
:01094A00228A
:0B096D007F64FE1209D0120A827F0C8A
:02097800AE07C8
:10097A00E4FDEDC39E500C120AA9740A2DF8A607CD
:03098A000D80EFEE
:01098D002247
:0F0A72001209ADE4FE9002BC120A9E0EBE06F6FB
:010A81002252
:0F0A82001209ADE4FE9002DE120A9E0EBE07F6C8
:010A91002242
:100A26001209ADE4FEEE9002E593FF120AA10EBE96
:020A360007F3C4
:010A3800229B
:100A39001209ADE4FEEE9002C893FF120AA10EBEA0
:020A49000BF3AD
:010A4B002288
:100A4C001209ADE4FEEE9002EC93FF120AA10EBE69
:020A5C0006F39F
:010A5E002275
:100A5F001209ADE4FEEE9002F293FF120AA10EBE50
:020A6F0006F38C
:010A71002262
:0207DF00AB0766
:1007E100E4F53BF53AF539F538EEF531EBF532E460
:1007F100FB742C2BF8E6FFE4FCFDFEE53B2FF53BFB
:10080100EE353AF53AED3539F539EC3538F5380B41
:10081100BB07DEE4FFE53AFEE4FDFC780812017B4C
:100821008F33E53BFF8F341209ADE4FB742C2BF8B9
:09083100E6FF120AA10BBB09F35A
:01083A00229B
:1008C8007B017A00E4FE1209ADEE9002C293FF129A
:1008D8000AA10EBE06F37513017F0E120978E513FF
:1008E800700EAF14EFFEAD157C00E42DFBEC3EFA64
:0408F800AE02AF039A
:0108FC0022D9
:1002FE0078357C007D007BFF7A0279F87E007F03E3
:10030E001200D37F01120A927A01798E1208917A25
:10031E0001799FE4F53E753F107FC012089B20A027
:10032E000E1209CC20A00830A00302043F80F82052
:10033E00A4231209CC20A41D30A4FDE52BB4E80D96
:10034E00E52AB40308752A00752B018008052BE5F4
:10035E002B7002052A12078120A2AD1209CC20A211
:10036E00A730A2FD12088D7A0179C1E4F53E753FE2
:10037E00107FC012089B30A08F20A00B1209CC203A
:10038E00A00520A08380FB120A727F0C120978E56B
:10039E001370E312096D7BFF7A0179D21208937FF5
:1003AE000112098E7FE87E031209D012088D7A01A0
:1003BE0079C1E4F53E753F107FC012089B20A00E58
:1003CE001209CC20A00830A00302031680F8120AEE
:1003DE00727F0C120978E51370E37FC8FE1209D004
:1003EE007BFF7A0179D21208937A01799FE4F53E68
:1003FE00753F107FC012089B120781120A267F0CD0
:10040E00120978120A4C7F0C120978AF2BAE2A1201
:10041E0007DF7F0C1209787F0112098E7FE87E03B9
:10042E001209D0052BE52B6003020316052A0203E1
:01043E0016A7
:01043F00229A
:10056D00E4F535F53678377C00FD7BFF7A0279FBB3
:10057D00FE7F031200D312088D7A0179C1E4F53E96
:10058D00753F107FC012089B120A727F0C120978FA
:10059D00E513600302066212096D120A397F10120B
:1005AD000978E51360030206457A0179E312089490
:1005BD007A01799FE4F53E753F107FC012089B7F4D
:1005CD000112098EAF14EFFEAD157C00E42DF5364A
:1005DD00EC3EF5357FCA120A92AE35AF367D641208
:1005ED000126EF2430FF1207D3AE35AF367C007DE8
:1005FD00641201267E007F0ACFCDCFCECCCE120164
:10060D0026EF2430FF1207D3AE35AF361207BBE508
:10061D000960217590FE7FD87E0E1209D07590FF6E
:10062D007FE87E031209D07590FD7F107E0E1209B2
:10063D00D07590FF750901227BFF7A0179F41208BC
:10064D00937A0179C1E4F53E753F107FC012089B86
:0B065D007F0312098E30A0030205830A
:01066800226F
:10066900E4F5357BFF7A0279051208947A02791646
:10067900E4F53E753F107FC012089B20A26A12095B
:10068900CC20A26430A2FD7BFF7A0279271208935D
:100699007A0179C1E4F53E753F107FC012089B7F4E
:1006A9002C7E011209D07FC0120A92E4F5357F2A07
:1006B9001207D37F647E001209D00535E535C3944E
:1006C9001040EB120A5F7F0C1209787BFF7A0279DE
:1006D900381208937A0179C1E4F53E753F107FC05D
:0B06E90012089B7F0302098E20A090E6
:0106F40022E3
:10083B00E47513017BFF7A027949F53E753F077F1B
:10084B00C012089BE4FB7F2A1207D37F147E001291
:10085B0009D00BBB08F07BFF7A027951E4F53E75AA
:10086B003F107FC012089B1209267F0C120978E5F6
:10087B0013700E7A027962F53E753F107FC0120835
:01088B009BD1
:01088C002249
:10044000E4F52AF52B1208FD7BFF7A027973120876
:1004500093120A12120AB17FC87E001209D0120844
:100460003B7FE87E031209D07BFF7A027984120871
:10047000937A027995E4F53E753F107FC012089B90
:10048000E508701F7A0279A6F53E753F027F80125B
:10049000089B7A0279A9E4F53E753F027FC01208F5
:1004A0009B8050E508640170257BFF7A0279A9F5ED
:1004B0003E753F027F8012089B7A0279A6E4F53EE2
:1004C000753F027FC012089B7A0279A98025E50852
:1004D0006402702A7BFF7A0279A9F53E753F027F9C
:1004E0008012089BE4F53E753F027FC012089B7A9C
:1004F0000279A6E4F53E753F027FC812089B20A250
:10050000431209CC20A23D30A2FDE50814600F146F
:1005100060252402702E75090112056D802675096B
:10052000011208C8EF4E6006E4F50912056DE509F1
:1005300060121202FE800DE4F50912056DE50960F6
:100540000312066920A41C1209CC20A41630A4FDB5
:10055000D3E50864809482500A0508E508B40303D3
:0D056000E4F5087F647E001209D0020468F3
:030000000206F500
:0C06F500787FE4F6D8FD75814002073CD8
:10000300E709F608DFFA8046E709F208DFFA803EDF
:1000130088828C83E709F0A3DFFA8032E309F608CC
:10002300DFFA8078E309F208DFFA807088828C8334
:10003300E309F0A3DFFA806489828A83E0A3F608E8
:10004300DFFA805889828A83E0A3F208DFFA804CC2
:1000530080D280FA80C680D4806980F28033801099
:1000630080A680EA809A80A880DA80E280CA803302
:1000730089828A83ECFAE493A3C8C582C8CCC5837A
:10008300CCF0A3C8C582C8CCC583CCDFE9DEE7804A
:100093000D89828A83E493A3F608DFF9ECFAA9F0C9
:1000A300EDFB2289828A83ECFAE0A3C8C582C8CC1F
:1000B300C583CCF0A3C8C582C8CCC583CCDFEADE38
:1000C300E880DB89828A83E493A3F208DFF980CC9A
:1000D30088F0EF60010E4E60C388F0ED2402B40493
:1000E3000050B9F582EB2402B4040050AF2323453A
:0600F3008223900053730C
:1000F900BB010CE58229F582E5833AF583E02250BC
:1001090006E92582F8E622BBFE06E92582F8E22205
:0D011900E58229F582E5833AF583E493221F
:10012600BC000BBE0029EF8DF084FFADF022E4CCBD
:10013600F875F008EF2FFFEE33FEEC33FCEE9DEC86
:10014600984005FCEE9DFE0FD5F0E9E4CEFD22EDCC
:10015600F8F5F0EE8420D21CFEADF075F008EF2F16
:10016600FFED33FD4007985006D5F0F222C398FD07
:050176000FD5F0EA22A4
:10017B00E8600FECC313FCED13FDEE13FEEF13FF62
:03018B00D8F12286
:10070100020440E493A3F8E493A34003F68001F2CA
:1007110008DFF48029E493A3F85407240CC8C333F9
:10072100C4540F4420C8834004F456800146F6DFC8
:10073100E4800B01020408102040809009E7E47E68
:10074100019360BCA3FF543F30E509541FFEE493BD
:10075100A360010ECF54C025E060A840B8E493A384
:10076100FAE493A3F8E493A3C8C582C8CAC583CAAF
:10077100F0A3C8C582C8CAC583CADFE9DEE780BE67
:0109FC0000FA
:00000001FF
